:020000040800F2
:1000000000100020390100083901000839010008FA
:10001000390100083901000880B582B000AF0346FD
:10002000FB71FB79012B02D100F00AF804E0FB79A7
:10003000002B01D100F016F807F10807BD4680BD7E
:1000400080B400AF40F60C03C4F2010340F60C028A
:10005000C4F20102126822F400521A60BD4680BC4C
:10006000704700BF80B400AF40F60C03C4F2010338
:1000700040F60C02C4F20102126842F400521A6007
:10008000BD4680BC704700BF80B586B000AF40F26F
:100090000002C2F2000240F20003C2F20003D31ACF
:1000A000BB6040F26423C0F600033B6140F20003F2
:1000B000C2F20003FB604FF000037B610FE03B697D
:1000C0001A78FB681A703B6903F101033B61FB6816
:1000D00003F10103FB607B6903F101037B617A6932
:1000E000BB689A42EBD340F20002C2F2000240F237
:1000F0000003C2F20003D31A7B6040F20003C2F295
:100100000003FB604FF000037B610BE0FB684FF0E6
:1001100000021A70FB6803F10103FB607B6903F1C5
:1001200001037B617A697B689A42EFD300F00AF899
:1001300007F11807BD4680BD80B500AFFFF7A4FFEB
:1001400080BD00BF80B582B000AF00F013F800F0B2
:1001500051F800F07BF803467B607B68142B01DDCF
:1001600000F050F849F2E030C0F2040000F05CF812
:10017000EFE700BF80B400AF41F21803C4F20203FE
:1001800041F21802C4F20202126842F004021A603C
:100190004FF40063C4F201034FF40062C4F20102A1
:1001A000126822F470021A604FF40063C4F2010373
:1001B0004FF40062C4F2010212681A6040F60403B0
:1001C000C4F2010340F60402C4F20102126822F4F0
:1001D00070021A6040F60403C4F2010340F6040200
:1001E000C4F20102126842F022321A60BD4680BC9D
:1001F000704700BF80B500AF4FF00000FFF70CFF65
:1002000080BD00BF80B500AF4FF00100FFF704FFD5
:100210004FF45460C0F2030000F006F84FF0000005
:10022000FFF7FAFE80BD00BF80B483B000AF7860F6
:1002300003E07B6803F1FF337B607B68002BF8D120
:1002400007F10C07BD4680BC704700BF80B400AF0B
:1002500040F60803C4F201031B68DBB21846BD4632
:0402600080BC7047A7
:0400000508000000EF
:00000001FF
