:100000000C942A000C9475000C9434000C94340069
:100010000C9434000C9434000C9434000C94340090
:100020000C9434000C9434000C9434000C94340080
:100030000C9434000C9434000C9434000C94340070
:100040000C9434000C9434000C9434000C94340060
:100050000C94340011241FBECFE5D8E0DEBFCDBF25
:100060000E9452000C9499000C940000DF93CF93EF
:10007000CDB7DEB7A1E3B0E0E1E3F0E080818160DD
:100080008C93A2E3B0E0E2E3F0E080818E7F8C937A
:10009000A1E3B0E0E1E3F0E080818B7F8C93CF912E
:1000A000DF910895DF93CF93CDB7DEB70E9436007E
:1000B000A5E5B0E0E5E5F0E0808181608C93A5E501
:1000C000B0E0E5E5F0E080818D7F8C93AFE5B0E0B6
:1000D000EFE5F0E0808180688C93ABE5B0E0EBE584
:1000E000F0E0808180648C93FFCF1F920F920FB657
:1000F0000F9211248F939F93AF93BF93EF93FF932E
:10010000DF93CF93CDB7DEB7A2E3B0E0E2E3F0E058
:10011000908181E089278C93CF91DF91FF91EF91BE
:10012000BF91AF919F918F910F900FBE0F901F9035
:060130001895F894FFCFC2
:00000001FF
